:040000000DEF00F010
:04000800A1EF05F06F
:10001800FF00E5EF0AF02DC5D9F42EC5DAF4DEC4E9
:10002800F6F4DDC4F7F4F86A0800F550250AD8A4F8
:1000380020EF00F022EF00F0B5EF01F02DC5D9F464
:100048002EC5DAF4DE2A000EDD22000E05018F6FC0
:10005800000E8E6F8EC554F590699169336A54EF1E
:1000680000F054822DC5D9F42EC5DAF4DE2A000E2C
:10007800DD2254EF00F0010E336E54EF00F02DC571
:10008800D9F42EC5DAF4DEC4F6F4DDC4F7F4F86A60
:100098000800F550300AD8B435EF00F03FEF00F013
:1000A8003350D8B45AEF00F05CEF00F043EF00F0A3
:1000B8002DC505F52EC506F52FC507F530C508F57C
:1000C8006DEC06F005C58EF506C58FF505018FBFE9
:1000D80072EF00F070EF00F077EF00F054808E6D53
:1000E8008F1FD8B08F2B2DC5D9F42EC5DAF4DEC4F6
:1000F80039F5DDC43AF539C5F6F43AC5F7F4F86AC6
:100108000800F5C438F594EF00F0394A3A2AABEF05
:1001180000F0690E386EABEF00F0386AABEF00F014
:100128003850640AD8B48DEF00F00C0AD8B489EFBF
:1001380000F0010AD8B48DEF00F01C0AD8B48DEF96
:1001480000F00D0AD8B48DEF00F091EF00F039C53A
:10015800F6F43AC5F7F4F86A0800F550640AD8B41A
:10016800B8EF00F0BAEF00F0F7EF00F039C5F6F499
:100178003AC5F7F4F86A0800F550690AD8A4C7EF39
:1001880000F0C9EF00F01CEF01F0F7EF00F02FC509
:10019800D9F430C5DAF4DFC431F5020EDE26DFC447
:1001A80032F5000EDD2231C5D9F432C5DAF4DEC4E9
:1001B80034F5DDC435F502EF01F02FC5D9F430C5AB
:1001C800DAF4DFC431F5020EDE26DFC432F5000EA4
:1001D800DD2231C5D9F432C5DAF4DEC434F5DDC424
:1001E80035F502EF01F03850680AD8B4E1EF00F0B5
:1001F800010AD8B4CBEF00F002EF01F0010E392468
:10020800316E000E3A20326E2DC5D9F42EC5DAF4BF
:1002180031C5DEF432C5DDF42BC51EF52CC51FF53E
:1002280034C520F535C521F5CBEC01F0CAEF01F056
:1002380039C5F6F43AC5F7F4F86A0800F550780AB3
:10024800D8B429EF01F02BEF01F068EF01F039C5C0
:10025800F6F43AC5F7F4F86A0800F550750AD8A418
:1002680038EF01F03AEF01F0ACEF01F068EF01F080
:100278002FC5D9F430C5DAF4DFC431F5020EDE2615
:10028800DFC432F5000EDD2231C5D9F432C5DAF407
:10029800DEC434F5DDC435F573EF01F02FC5D9F4AC
:1002A80030C5DAF4DFC431F5020EDE26DFC432F5DC
:1002B800000EDD2231C5D9F432C5DAF4DEC434F5D6
:1002C800DDC435F573EF01F03850680AD8B452EF41
:1002D80001F0010AD8B43CEF01F073EF01F0010E10
:1002E8003924316E000E3A20326E2DC5D9F42EC550
:1002F800DAF431C5DEF432C5DDF49BEF01F02BC52D
:100308001EF52CC51FF534C520F535C521F5B8EC0B
:1003180004F0CAEF01F02BC51EF52CC51FF534C536
:1003280020F535C521F5BEEC03F0CAEF01F039C55B
:10033800F6F43AC5F7F4F86A0800F550750AD8B427
:1003480083EF01F00D0AD8B48FEF01F0ACEF01F0A4
:100358002DC5D9F42EC5DAF4DE2A000EDD22CAEF47
:1003680001F02DC5D9F42EC5DAF4DEC4F6F4DDC4E7
:10037800F7F4F86A0800F550056E066A2BC507F50C
:100388002CC508F508EC06F0ACEF01F01200010EE0
:10039800246E21BED2EF01F0D5EF01F0010ED6EFA9
:1003A80001F0000E276E8EC525F58FC526F527505E
:1003B800D8B4E1EF01F0E3EF01F0FAEF01F0250620
:1003C800D8A026062750D8A4ECEF01F0EEEF01F0F4
:1003D800F4EF01F0000E236E2B0E226EF8EF01F001
:1003E800000E236E2D0E226E22C527F5000E296EF3
:1003F8001F0E286E06011F6B30EF02F02806D8A0EA
:100408002906000E2824D96E060E2920DA6E20C58A
:1004180005F521C506F5000E086E0A0E076E32ECCA
:1004280007F005C50BF506C50CF557EC0BF00B509E
:10043800300FDF6E246A2506D8A0260620C505F5EC
:1004480021C506F5000E086E0A0E076ED1EC06F0FF
:1004580005C520F506C521F529BE3BEF02F0295058
:1004680008E12804D8A03BEF02F03DEF02F062EF6C
:1004780002F020502110D8A444EF02F046EF02F019
:1004880002EF02F02450D8A44CEF02F04EEF02F035
:1004980002EF02F026BE59EF02F0265008E12504CB
:1004A800D8A059EF02F05BEF02F062EF02F054B20D
:1004B80060EF02F062EF02F002EF02F02750D8B4CA
:1004C80068EF02F06AEF02F075EF02F02806D8A094
:1004D8002906000E2824D96E060E2920DA6E27C5B3
:1004E800DFF41EC515F51FC516F5000E2824176E76
:1004F800060E2920186E25C519F526C51AF5DCEC57
:1005080007F01200156A0B0E1524D96EDA6A050E6B
:10051800DA22DF6A152A060E156495EF02F097EFC6
:1005280002F087EF02F0A4EF02F00706D8A0080651
:10053800100E096E940EE82EFED7092EFCD700D0B7
:1005480076EC0CF00009D8A4ACEF02F0AEEF02F0A4
:10055800B7EF02F007500810D8A4B5EF02F0B7EFD4
:1005680002F099EF02F007500810D8A4BEEF02F08D
:10057800C0EF02F0C3EF02F0080E3AEF03F058ECB8
:100588000CF0146E05500610D8B4CDEF02F0CFEF82
:1005980002F0DCEF02F005C5D9F406C5DAF414C59B
:1005A800DFF4054A062A05C5D9F406C5DAF4DF6A78
:1005B800176A0B0E1724D96EDA6A050EDA22DF5095
:1005C800166E1750020D930EF324F66EFB0EF420F0
:1005D800F76EF86A000EF8220900F5C412F50A0051
:1005E800F5C413F516501224096E000E13200A6E76
:1005F80009C5F6F40AC5F7F4F86A0800F5501418A6
:10060800D8A409EF03F00BEF03F00EEF03F0162A5E
:100618000FEF03F0166A16501224096E000E13200D
:100628000A6E09C5F6F40AC5F7F4F86A0800F55029
:100638000009D8A422EF03F024EF03F027EF03F01A
:1006480017503AEF03F00B0E1724D96EDA6A050E2D
:10065800DA2216C5DFF4172A060E176436EF03F000
:1006680038EF03F0DDEF02F0A4EF02F01200FFEC28
:100678000BF0FA0E056E180E066E62EC0CF0D68EB4
:10068800A8EC0AF089EC07F0B9EC0BF0120EA2EC1A
:100698000BF005C5F0F506C5F1F5200E0501F05D76
:1006A800030EF159D8B05BEF03F05DEF03F069EF8B
:1006B80003F0DB0ECB6F050ECC6F050ECD6FFE0E73
:1006C800CE6FF9EC09F073EF03F0DB0ECB6F050E7C
:1006D800CC6F8A0ECD6FFE0ECE6FF9EC09F0EB0EE3
:1006E8000501CB6F050ECC6FDB0ECD6FFF0ECE6F05
:1006F800F0C5CFF5F1C5D0F5F9EC09F0B9EC0BF080
:10070800010E086E010EE1EC08F0DB0E086E050E16
:10071800096E88EC0AF0010E086E020EE1EC08F092
:10072800010E40EC04F002EC0BF00501EF6FEB0E4C
:10073800CB6F050ECC6FF70ECD6FFF0ECE6FEFC5EA
:10074800CFF5D06BF9EC09F0EB0E086E050E096ECB
:1007580088EC0AF0F40E516E820E506E050EE82EEB
:10076800FED7502EFCD7512EFAD700004AEF03F0DF
:100778000DEF00F0010E256E8EC526F58FC527F505
:10078800000E2A6E1F0E296E06011F6BFCEF03F088
:100798002906D8A02A0620500F0B286E0A0E2860BA
:1007A800D8EF03F0DAEF03F0DEEF03F0300E28267F
:1007B800E0EF03F0570E2826000E2924D96E060E06
:1007C8002A20DA6E28C5DFF4256A2606D8A027066F
:1007D80020C522F521C523F5040E246ED8902332B6
:1007E8002232242EF2EF03F022C520F523C521F58D
:1007F8002ABE08EF04F02A5009E1020E295CD8A0AD
:1008080008EF04F00AEF04F02FEF04F02050211055
:10081800D8A411EF04F013EF04F0CCEF03F0255047
:10082800D8A419EF04F01BEF04F0CCEF03F027BEB7
:1008380026EF04F0275008E12604D8A026EF04F09C
:1008480028EF04F02FEF04F054B22DEF04F02FEF4F
:1008580004F0CCEF03F01EC515F51FC516F5000E04
:100868002924176E060E2A20186E26C519F527C5E5
:100878001AF5DCEC07F012001E6EE0EC0BF002EC4F
:100888000BF00009D8B44BEF04F04DEF04F043EF40
:1008980004F09C0E1D6ED70EE82EFED71D2EFCD739
:1008A8000000E0EC0BF0D60E0A6EFF0E0B6E010E88
:1008B80067EC0AF0000E056E000E066E0B0E086E51
:1008C800B80E076E86EC02F01F6E1F50D8B46FEF9B
:1008D80004F071EF04F073EF04F0B7EF04F0000ECA
:1008E800056E000E066E1B0E086E580E076E86EC1F
:1008F80002F01F6E1F04D8B484EF04F086EF04F0F2
:1009080088EF04F0B7EF04F0E0EC0BF0AE0E0A6EDF
:10091800FF0E0B6E040E67EC0AF0000E056E000E5B
:10092800066E0B0E086EB80E076E86EC02F01F6E90
:100938001F50D8B4A2EF04F0A4EF04F0A6EF04F01F
:10094800B7EF04F01E50A7EC09F01F6E1F50D8B483
:10095800B0EF04F0B2EF04F0B4EF04F0B7EF04F036
:10096800010E20EC0AF01200010E226E8EC523F54E
:100978008FC524F5000E266E1F0E256E06011F6B0F
:10098800EEEF04F02506D8A02606000E2524D96E21
:10099800060E2620DA6E20C505F521C506F5000EDF
:1009A800086E0A0E076E47EC09F00550300FDF6E2F
:1009B800226A2306D8A0240620C505F521C506F518
:1009C800000E086E0A0E076E70EC08F005C520F5DB
:1009D80006C521F525502610D8B4F5EF04F0F7EF39
:1009E80004F01CEF05F020502110D8A4FEEF04F00D
:1009F80000EF05F0C6EF04F02250D8A406EF05F08A
:100A080008EF05F0C6EF04F024BE13EF05F02450FC
:100A180008E12304D8A013EF05F015EF05F01CEF4B
:100A280005F054B21AEF05F01CEF05F0C6EF04F01C
:100A38001EC515F51FC516F5000E2524176E060EE2
:100A48002620186E23C519F524C51AF5DCEC07F025
:100A580012005750020D600EF324D96E050EF420D3
:100A6800DA6EDE6ADD6A0201B2A73DEF05F03FEFFC
:100A780005F05EEF05F05750020D600EF324D96EB5
:100A8800050EF420DA6E0501DF829C519D11D8B461
:100A980050EF05F052EF05F05EEF05F002D85EEF7B
:100AA80005F00500FA6E9C51FD6E9D51FE6EFF6AC1
:100AB800FA5012000201B2A364EF05F066EF05F0E8
:100AC80085EF05F05750020D600EF324D96E050E20
:100AD800F420DA6E0501DF849A519B11D8B477EFC0
:100AE80005F079EF05F085EF05F002D885EF05F000
:100AF8000500FA6E9A51FD6E9B51FE6EFF6AFA5020
:100B08001200A1C201F55728070B026E56500218B1
:100B1800D8A491EF05F093EF05F095EF05F0A0EF5D
:100B280005F07E0E5724D96EDA6A050EDA2201C561
:100B3800DFF402C557F5552A1200FAC403F5FBC4C1
:100B480004F5A8AEAAEF05F0ACEF05F0B7EF05F095
:100B5800B3AEB1EF05F0B3EF05F0B7EF05F07EECFB
:100B68000CF003EF06F0ABAEBCEF05F0BEEF05F0FE
:100B7800C9EF05F0B6AEC3EF05F0C5EF05F0C9EF54
:100B880005F01FEC0BF003EF06F0ACA2CEEF05F07A
:100B9800D0EF05F0E6EF05F0B7A2D5EF05F0D7EFF7
:100BA80005F0E6EF05F002D8E4EF05F00500FA6E6F
:100BB8000501F651FD6EF751FE6EFF6AFA501200FC
:100BC80003EF06F0ACA0EBEF05F0EDEF05F003EF57
:100BD80006F0B7A0F2EF05F0F4EF05F003EF06F02A
:100BE80002D801EF06F00500FA6E0501F451FD6E1A
:100BF800F551FE6EFF6AFA50120003EF06F004C5C5
:100C0800FBF403C5FAF4110007500810D8B40FEF2D
:100C180006F011EF06F01AEF06F007500810D8A4F6
:100C280018EF06F01AEF06F01FEF06F0055079EC02
:100C38000CF06CEF06F020EE09F00750D9260850AA
:100C4800DA22DE50DE10D8B42CEF06F02EEF06F0D4
:100C580049EF06F020EE09F00750D9260850DA22AD
:100C680010EE02F00750E1260850E222DE50E65C62
:100C7800E650800A0D6EDE50800A0D58D8B047EF56
:100C880006F049EF06F06CEF06F020EE02F0075090
:100C9800D9260850DA22DEC409F5DDC40AF507C5ED
:100CA800D9F408C5DAF4DEC40BF5DDC40CF5095037
:100CB8000B24D96E0A500C20DA6E05C5DFF420EE3D
:100CC80002F00750D9260850DA22DE2A000EDD226B
:100CD8001200000E0D6E000E0C6E05C5D9F406C587
:100CE800DAF4DEC4F6F4DDC4F7F4F86A0800F55067
:100CF8002A0AD8A482EF06F084EF06F0B7EF06F0D0
:100D080005C5D9F406C5DAF4DE2A000EDD2207C5CA
:100D1800D9F408C5DAF4DFC409F5020EDE26DFC40B
:100D28000AF5000EDD2209C5D9F40AC5DAF4DEC4D5
:100D38000CF5DDC40DF5CCEF06F00A0E0C02F3C479
:100D480009F5F4C40AF50D02F3500A260B500924DC
:100D58000C6E000E0A200D6E05C5D9F406C5DAF42E
:100D6800DE2A000EDD2205C5D9F406C5DAF4DEC494
:100D7800F6F4DDC4F7F4F86A0800F550D00F0B6EEE
:100D8800090E0B64CAEF06F0CCEF06F0A1EF06F0EF
:100D98000CC505F50DC506F512000A6A08BED9EF9F
:100DA80006F0D7EF06F0DFEF06F0076C081ED8B0A4
:100DB800082A010E0A6E06BEE6EF06F0E4EF06F01A
:100DC800ECEF06F0056C061ED8B0062A010E0A1ACA
:100DD800000E0C6E000E0B6E07500810D8B4F7EF1B
:100DE80006F0F9EF06F021EF07F0010E096E01EFAA
:100DF80007F0D89007360836092A08AE06EF07F03C
:100E080008EF07F0FDEF06F0D8900B360C360750C8
:100E1800055C08500658D8A014EF07F016EF07F045
:100E28001BEF07F00750055E0850065A0B80D89054
:100E380008320732092E08EF07F00A50D8B427EF16
:100E480007F029EF07F02DEF07F00B6C0C1ED8B058
:100E58000C2A0BC505F50CC506F512000A6A06BE74
:100E68003AEF07F038EF07F040EF07F0056C061E81
:100E7800D8B0062A010E0A6E08BE47EF07F045EF04
:100E880007F04BEF07F0076C081ED8B0082A075088
:100E98000810D8B452EF07F054EF07F078EF07F0D6
:100EA800010E096E5CEF07F0D89007360836092A5C
:100EB80008AE61EF07F063EF07F058EF07F007504F
:100EC800055C08500658D8A06CEF07F06EEF07F0E5
:100ED80072EF07F00750055E0850065AD89008329E
:100EE8000732092E63EF07F00A50D8B47EEF07F0F7
:100EF80080EF07F084EF07F0056C061ED8B0062ACD
:100F080005C505F506C506F51200000E79EC09F0D1
:100F1800020E096E380E086EAD0EE82EFED7082EAA
:100F2800FCD7092EFAD70000030EF0EC0BF04E0E9A
:100F3800086EEB0EE82EFED7082EFCD70000030E35
:100F4800F0EC0BF0AC0E086E6C0EE82EFED7082EF7
:100F5800FCD700D0030EF0EC0BF0020EF0EC0BF017
:100F6800020EF0EC0BF0020EF0EC0BF0030EF0ECBE
:100F78000BF0000EF0EC0BF00F0EF0EC0BF0080E7F
:100F8800F0EC0BF0000EF0EC0BF00C0EF0EC0BF0AC
:100F9800000EF0EC0BF0000EF0EC0BF0070EF0EC8E
:100FA8000BF0000EF0EC0BF0020EF0EC0BF0120060
:100FB80054A0E1EF07F0E3EF07F0EDEF07F017C5F6
:100FC8000EF518C50FF515C510F516C511F545EC44
:100FD8000AF01ABEF4EF07F0F2EF07F0F8EF07F0A7
:100FE800000E1A6E000E196E000E1D6E000E1C6E9D
:100FF8000AEF08F0000E066E200E056E15C507F5FF
:1010080016C508F508EC06F01C4A1D2A19501C5C88
:101018001D50800A1B6E1A50800A1B58D8A017EF63
:1010280008F019EF08F0FEEF07F054B01EEF08F0D3
:1010380020EF08F02AEF08F017C50EF518C50FF5D0
:1010480015C510F516C511F545EC0AF01200AC905F
:101058005A0E0501F46F0A0EF56FAC92780EF66F12
:10106800160EF76F0201A16BA26BA36BA46BA56BA5
:10107800A66BA76BA86BA96BAA6BB00EAB6F800EA3
:10108800AC6F080EAD6F670EAE6FAF6B2E0EB06F04
:10109800B16B800EB26FB36BF60E056E180E066E4E
:1010A8002AEC0CF0F40E056E180E066E1CEC0CF013
:1010B800000E056E000E066E0EEC0CF0000E05011B
:1010C8009F6F000E9E6F5A6A596A080E586E576ACB
:1010D800566A556AAC801200000E0B6E000E0A6E3E
:1010E80007500810D8B47BEF08F07DEF08F0A5EFA3
:1010F80008F0010E096E85EF08F0D890073608361B
:10110800092A08AE8AEF08F08CEF08F081EF08F0A2
:10111800D8900A360B360750055C08500658D8A0F8
:1011280098EF08F09AEF08F09FEF08F00750055E77
:101138000850065A0A80D89008320732092E8CEFD8
:1011480008F00AC505F50BC506F51200000E096E74
:10115800000E086EC7EF08F006C5F6F407C5F7F4E9
:10116800000EF86E150EF76403D00800F55005D090
:10117800F6C4E9F4F7C4EAF4EF5038EC0CF0064A88
:10118800072A084A092A06C5F6F407C5F7F4000E27
:10119800F86E150EF76403D00800F55005D0F6C4B4
:1011A800E9F4F7C4EAF4EF500009D8A4DEEF08F038
:1011B800E0EF08F0B0EF08F01200096E0904D8A4B7
:1011C800E8EF08F0EAEF08F0FBEF08F008507F0FAF
:1011D8000C6E0C380F0B0A6E0C500F0B0B6E0A506E
:1011E800F0EC0BF00B50F0EC0BF013EF09F0020EE3
:1011F8000918D8A402EF09F004EF09F013EF09F079
:101208000850BF0F0C6E0C380F0B0A6E0C500F0BEA
:101218000B6E0A50F0EC0BF00B50F0EC0BF01200D8
:10122800BE6ABF6AC06A3F0EC66E200EC76E070E42
:10123800C86E370E0401006F086B070E106F016B44
:10124800096B116B0201876B866B0401026B0A6BD9
:10125800126B370E036FF00E0B6F13693F0E046F9E
:101268000C6B030E146F0D0E0201726F100E0F6FD0
:101278000401056B066B076B0D6B0E6B0F6B156B23
:10128800166B176B120007500810D8B44EEF09F010
:1012980050EF09F074EF09F0010E096E58EF09F0EC
:1012A800D89007360836092A08AE5DEF09F05FEFD7
:1012B80009F054EF09F00750055C08500658D8A00B
:1012C80068EF09F06AEF09F06EEF09F00750055E64
:1012D8000850065AD89008320732092E5FEF09F0F5
:1012E80005C505F506C506F51200056E05A07FEFD4
:1012F80009F081EF09F084EF09F0D08685EF09F055
:10130800D09605A28AEF09F08CEF09F08FEF09F06B
:10131800D08C90EF09F0D09C05A495EF09F097EFD9
:1013280009F09AEF09F0D08E9BEF09F0D09E05A640
:10133800A0EF09F0A2EF09F0A5EF09F0CF8EA6EF14
:1013480009F0CF9E12001C6E1C50186E196AD890B6
:1013580018361936FE0E18241A6EFF0E19201B6E49
:10136800B10E1A24F66EFB0E1B20F76EF86A000EFB
:10137800F8220900F5C40AF50A00F5C40BF50B0EAE
:1013880067EC0AF0000E056E000E066E0B0E086E76
:10139800B80E076E86EC02F012003DC541F53EC559
:1013A80042F5E5EF09F03BC52BF53CC52CF5410EA0
:1013B8002D6E050E2E6E3FC52FF540C530F50FEC8E
:1013C80000F041C5F6F442C5F7F4F86A0800F55094
:1013D8000009D8A4F2EF09F0F4EF09F0D7EF09F00B
:1013E800000E3C6E000E3B6E1200CF0E436E050ED3
:1013F800446ECBC545F5CCC546F5000E486E000ECB
:10140800476E000E4F6E000E4E6E450E3B6E050E7B
:101418003C6ECDC53DF5CEC53EF5430E3F6E050E7F
:10142800406ED1EC09F047500501CB25D96E4850E4
:10143800CC21DA6EDF6A1200186E1850D8A427EF94
:101448000AF029EF0AF02FEF0AF0E50E196EFF0EE9
:101458001A6E33EF0AF0E80E196EFF0E1A6E19C5F0
:101468000AF51AC50BF5340E67EC0AF0000E056E86
:10147800000E066E070E086ED00E076E86EC02F0A0
:101488001200000E146E000E136E56EF0AF012C50D
:1014980005F5066A10C507F511C508F508EC06F04C
:1014A800134A142A13500E24D96E14500F20DA6EE2
:1014B800DF50126E1250D8A464EF0AF066EF0AF0FB
:1014C8004BEF0AF012000C6E0C50020DEB0EF324D9
:1014D800F66EFA0EF420F76EF86A000EF82209008C
:1014E800F5C406F50A00F5C407F5AAEC08F00AC524
:1014F80006F50BC507F5AAEC08F0B70E066EFB0E4D
:10150800076EAAEC08F01200000E0B6E000E0A6EB1
:1015180099EF0AF00A500824D96E0B500920DA6EA8
:10152800DF50C7EC0AF00A4A0B2A0A500824D96E81
:101538000B500920DA6EDF50D8A4A5EF0AF0A7EF08
:101548000AF08EEF0AF012000301D96BDA6BDB6B3D
:10155800DC6BDF6BE06BE56BE76B120EEC6FEE6933
:101568001F0EEF6FF06BF16BF26BF46B100EF56FF3
:10157800F66BF76BF86BF96B1D0EFA6F840EF36F51
:10158800B494B5901200076ED08A07380F0B0F0B72
:1015980079EC09F0D088080E066ECA0EE82EFED740
:1015A800062EFCD7D09807500F0B79EC09F0D0889D
:1015B800080E066ECA0EE82EFED7062EFCD7D09867
:1015C800120001EE00F2200EEE6AE806FDE101EEDF
:1015D80060F16B0EEE6AE806FDE15B6A01EE52F11E
:1015E800090EEE6AE806FDE10401080E5D6F000EC3
:1015F8005E6F000E5F6F00013BEF03F0D60E0A6EC0
:10160800FF0E0B6E000E67EC0AF0000E056E000E62
:10161800066E030E086EE80E076E86EC02F0186E72
:101628001850D8B41AEF0BF01DEF0BF0010E1EEF97
:101638000BF0000E1200B69E53500301196F52C5ED
:1016480018F30501F251F311D8B42DEF0BF02FEF79
:101658000BF03BEF0BF002D83BEF0BF00500FA6EF6
:10166800F251FD6EF351FE6EFF6AFA50120012003D
:10167800080E586042EF0BF044EF0BF055EF0BF0FB
:10168800860E5924D96EDA6A050EDA22DF50020175
:10169800A36F5928070B016E01C559F5582A56EF53
:1016A8000BF0AC9212000CBE5CEF0BF05EEF0BF08F
:1016B80064EF0BF00BC50BF50CC50CF570EF0BF0D8
:1016C8000BC50DF50CC50EF50D1E0E1E0D4A0E2A86
:1016D8000DC50BF50EC50CF51200D69AB490D68040
:1016E800000E056E000E066E71EC0CF0B990D682F5
:1016F800000E056E000E066E6CEC0CF0BD90D684E4
:10170800000E056E000E066E67EC0CF01200030169
:10171800196B186B6F0E1B6F1951076E1851526EAB
:1017280007C553F5F80E056E180E066E62EC0CF040
:10173800B69EAB8E9F0E03011A6F1200096E09C583
:10174800ECF30301F39DF381F3B1ADEF0BF0AFEFD1
:101758000BF0A8EF0BF0EB51086E076AEA5107246B
:10176800056E000E0820066E1200000EF0EC0BF05D
:10177800010EF0EC0BF0000EF0EC0BF0020EF0ECAA
:101788000BF0200E086E2A0EE82EFED7082EFCD786
:1017980012000001B46B070EB56F070EB66F070E87
:1017A800B76F070EB86F070EB96F070EBE6F070E3B
:1017B800BF6FF46AF36A12005B80E5EF0BF058EC38
:1017C8000CF076EC0CF00009D8A4EDEF0BF0EFEF7D
:1017D8000BF0E3EF0BF01200076ED09A075079EC8C
:1017E80009F0D088080E066ECA0EE82EFED7062E1F
:1017F800FCD7D09812004EEC0CF014EC09F0A8ECD1
:101808000AF0CDEC0BF08BEC0BF02BEC08F071EC44
:101818000BF0120005500610D8B415EF0CF017EFB6
:101828000CF01BEF0CF005C598F506C599F51200EC
:1018380005500610D8B423EF0CF025EF0CF029EF73
:101848000CF005C59AF506C59BF512000550061063
:10185800D8B431EF0CF033EF0CF037EF0CF005C5CE
:101868009CF506C59DF51200056EACA23EEF0CF086
:1018780040EF0CF039EF0CF005C5A3F212005550FB
:10188800D8A449EF0CF04CEF0CF0010E4DEF0CF022
:10189800000E1200600E0001AD6FAF6BB36B070E48
:1018A800B16FB06BAC6B1200ACA05DEF0CF05FEFEA
:1018B8000CF058EF0CF00201A151120005C5F2F529
:1018C80006C5F3F5120005C5A0F506C5A1F5120079
:1018D80005C5A2F506C5A3F5120005C5A4F506C5FC
:1018E800A5F5120043EC0CF01200120012001200D1
:0618F800120012001200B4
:10FAEA0000F4FF6AFF5CFF2EFF4AFEACFE66FE4E84
:10FAFA00FE0CFFB7FEDFFE5AFD14FDC4FD83FD7246
:10FB0A00FEFAFE03FFDEFD9DFDF1FE68FD22FDBD4E
:10FB1A00FC9FFC3EFD1FFCFDFB60FC50FC4CFD06FF
:10FB2A00FDD1FD90FD80FCDBFCD8FBEBFB63FF36CF
:10FB3A00FFEBFDAAFD7EFEF8FC96FEF8FD30FD7097
:10FB4A00FCAEFCCCFC36FE15FFCCFEB7FDA1FE0ECA
:10FB5A00FCC2FE26FF42FE5AFE56100000000000BC
:10FB6A0000861800000000000000000000000000ED
:10FB7A00000000000000000000000000000000007B
:10FB8A0000541838181C180000F1FF96FFC9FFE846
:10FB9A00FE4EFF55FF8AFFD6FF3EFF1617000000F4
:10FBAA00000000C4180000E8FFEBFFEEFF0D0A009A
:10FBBA00253032783A253032783A253032783A256B
:10FBCA003032783A253032783A253032780041544A
:10FBDA002B43575354415254444953434F56455269
:10FBEA000041542B435753544F50444953434F56A3
:10FBFA0045520041542B4349505354414D41435FB0
:10FC0A004445460041542B534156455452414E53A4
:10FC1A004C494E4B0041542B4349505354414D419A
:10FC2A00435F435552002B4349505354414D41437E
:10FC3A005F4445463A002B4349505354415F43556C
:10FC4A00523A69703A0041542B43495041504D4150
:10FC5A00435F4445460041542B43495041504D416E
:10FC6A00435F4355520041542B4349504255465332
:10FC7A0054415455530041542B4357535441525401
:10FC8A00534D415254002B43495041504D41435F1B
:10FC9A004445463A0041542B435744484350535F26
:10FCAA004445460041542B434950434845434B532E
:10FCBA0045510041542B435744484350535F4355E1
:10FCCA00520041542B4349504255465245534554DC
:10FCDA000041542B435753544F50534D41525400F3
:10FCEA002B435744484350535F4355523A004154BB
:10FCFA002B43495053534C53495A450041542B43C3
:10FD0A0049505354415F4445460041542B43574D93
:10FD1A004F44455F4445460041542B4357444843AA
:10FD2A00505F4445460041542B43495053454E4485
:10FD3A004255460041542B43574155544F434F4E69
:10FD4A004E0041542B4349505354415F435552008E
:10FD5A0041542B43574D4F44455F4355520041543C
:10FD6A002B4357444843505F435552002B43574D4A
:10FD7A004F44455F4355523A0041542B43574A4139
:10FD8A00505F4445460041542B43495041505F441B
:10FD9A0045460041542B43575341505F4445460062
:10FDAA0041542B434950444F4D41494E0041542B35
:10FDBA004349505345525645520041542B43574AE2
:10FDCA0041505F4355520041542B43495041505FC3
:10FDDA004355520041542B43575341505F435552A8
:10FDEA000041542B434950535441545553004154F4
:10FDFA002B43495053454E44455800576174657228
:10FE0A003A20656D7074790025642E25642E256468
:10FE1A002E2564002B43495041505F4355523A0006
:10FE2A002B43575341505F4355523A0041542B4399
:10FE3A004950434C4F53450041542B434955504474
:10FE4A004154450041542B554152545F44454600A4
:10FE5A0041542B43495044494E464F0041542B5577
:10FE6A004152545F4355520041542B43574C415021
:10FE7A004F50540041542B4349505354415254005B
:10FE8A0057617465723A2046756C6C0041542B4375
:10FE9A00495053454E440041542B4349504D4F4419
:10FEAA00450041542B524553544F52450041542B5F
:10FEBA005246504F5745520041542B4349505354D0
:10FECA004F0041542B4349504D5558002B4349503C
:10FEDA0053544F3A0041542B5246564444004E4F15
:10FEEA004348414E47450041542B43574C4946002D
:10FEFA0041542B43574C41500041542B43575141D5
:10FF0A00500041542B534C4545500041542B434912
:10FF1A00465352002B43574A41503A0041542B5002
:10FF2A00494E470041542B47534C500041542B4DE6
:10FF3A00444E530054494D454F555400414C524587
:10FF4A00414459004C494E4B454400554E4C494E8C
:10FF5A004B0041542B474D520041542B57505300EC
:10FF6A0041542B525354003D25642C2564002C2502
:10FF7A00642C22003D25642C22002B4950442C007D
:10FF8A004552524F52003D312C256400726561641E
:10FF9A00790053534C2200544350220055445022B6
:10FFAA00003D302C30003D312C30003D322C3000E9
:10FFBA003D302C31003D312C31003D322C31004690
:10FFCA0041494C00222C256400222C22003D256444
:10FFDA0000256875003D2200222C003D30003D318D
:10FFEA00003D32003D33004F4B004154002569006B
:05FFFA003E003F000085
:020000040020DA
:10000000FFFFFFFFFFFFFFFFFFFFFFFFFFFFFFFF00
:10001000FFFFFFFFFFFFFFFFFFFFFFFFFFFFFFFFF0
:10002000FFFFFFFFFFFFFFFFFFFFFFFFFFFFFFFFE0
:10003000FFFFFFFFFFFFFFFFFFFFFFFFFFFFFFFFD0
:020000040030CA
:09000000FFFFF7FF9FFFFFFFFF68
:00000001FF
