:040000000DEF00F010
:0400080096EF0EF071
:06001800FF0099EF0FF05C
:10160000006E1C0000000000000000000000000050
:1016100000000000000000000000000000000000CA
:1016200000000000000000000028200C20F01F0037
:1016300000041F000000000000722000004C454420
:1016400020574F524B494E4720212100256300006F
:10165000C3EC0FF007C503F508C504F50BEC0FF05C
:1016600007C5D9F408C5DAF4DE04D8A43AEF0BF0C4
:101670003CEF0BF0D7EF0BF020EE03F00750D9262C
:101680000850DA224BEC0DF0DF6E20EE04F007502C
:10169000D9260850DA224BEC0DF0DF6E20EE01F077
:1016A0000750D9260850DA224BEC0DF0DF6E20EE01
:1016B00002F00750D9260850DA224BEC0DF0DF6E0D
:1016C0004BEC0DF0096E0A6A20EE0CF00750D9269B
:1016D0000850DA2209C5DEF40AC5DDF420EE0CF06C
:1016E0000750D9260850DA2210EE03F00750E12601
:1016F0000850E222E7500B6E0C6A10EE04F007501F
:10170000E1260850E222E7500D6E0D500B26000E28
:101710000C2210EE01F00750E1260850E222E750BB
:101720000E6E0E500B26000E0C2210EE02F007502B
:10173000E1260850E222E7500F6E0F500B26000EF4
:101740000C22FF0E0B16000E0C16DE500B1807E1D4
:10175000DE500C18D8A4AFEF0BF0B1EF0BF0D7EFC1
:101760000BF020EE01F00750D9260850DA22DF50A6
:10177000096E0A6A20EE06F00750D9260850DA22D0
:1017800009C5DEF40AC5DDF420EE03F00750D926C2
:101790000850DA22DF50096E0A6A20EE08F007507E
:1017A000D9260850DA2209C5DEF40AC5DDF4120094
:1017B0000EC5D9F40FC5DAF4DFC4F6F4160EF76ED1
:1017C000F86A0800F550250AD8A4E9EF0BF0EBEF12
:1017D0000BF034EF0CF00EC5D9F40FC5DAF4DF2AA4
:1017E000000E346E000E336E33C547F5356836682B
:1017F0000EC5D9F40FC5DAF4DFC4F6F4160EF76E91
:10180000F86A0800F550630AD8A409EF0CF00BEF52
:101810000CF02DEF0CF00EC5D9F40FC5DAF4DF2A69
:1018200010C5D9F411C5DAF4DFC412F5020EDE26B4
:10183000DFC413F5000EDD2212C5D9F413C5DAF4A6
:10184000DF50146E14C503F5046A0CC505F50DC50B
:1018500006F54AEC0CF049EF0CF00EC5D9F40FC5B3
:10186000DAF4DF2A49EF0CF00EC5D9F40FC5DAF42B
:10187000DFC4F6F4160EF76EF86A0800F550036E32
:10188000046A0CC505F50DC506F54AEC0CF02DEF04
:101890000CF0120005500610D8B451EF0CF053EFC5
:1018A0000CF05CEF0CF005500610D8A45AEF0CF0C9
:1018B0005CEF0CF061EF0CF003504DEC10F0AEEF6C
:1018C0000CF020EE09F00550D9260650DA22DE5041
:1018D000DE10D8B46EEF0CF070EF0CF08BEF0CF064
:1018E00020EE09F00550D9260650DA2210EE02F05B
:1018F0000550E1260650E222DE50E65CE650800A02
:101900000B6EDE50800A0B58D8B089EF0CF08BEFCD
:101910000CF0AEEF0CF020EE02F00550D926065088
:10192000DA22DEC407F5DDC408F505C5D9F406C51D
:10193000DAF4DEC409F5DDC40AF507500924D96ECE
:1019400008500A20DA6E03C5DFF420EE02F00550DD
:10195000D9260650DA22DE2A000EDD22120022EC01
:1019600010F09E0E036E200E046E39EC10F0D68E31
:1019700004EC0DF0AFEC0FF0010E066E010ED1EC91
:101980000DF03D0E066E0650D8A4160E076E90ECB4
:101990000DF0AFEC0FF0480E076E050E086E28EC48
:1019A0000BF0010E066E010ED1EC0DF03D0E066E31
:1019B0000650D8A4160E076E90EC0DF0010E066EC0
:1019C000020ED1EC0DF02F0E1B6E050E1C6E4C0E90
:1019D0001D6E4EC51EF54FC51FF5E7EC0EF02F0E20
:1019E000066E050E076E90EC0DF0B70E2E6EA10E72
:1019F0002D6EC40EE82EFED72D2EFCD72E2EFAD734
:101A0000C9EF0CF00DEF00F0000E68EC0EF0020EC6
:101A1000076E380E066EAD0EE82EFED7062EFCD7EA
:101A2000072EFAD70000030EE9EC0FF04E0E066EFB
:101A3000EB0EE82EFED7062EFCD70000030EE9ECD5
:101A40000FF0AC0E066E6C0EE82EFED7062EFCD7FD
:101A500000D0030EE9EC0FF0020EE9EC0FF0020EDD
:101A6000E9EC0FF0020EE9EC0FF0030EE9EC0FF0D9
:101A7000080EE9EC0FF0000EE9EC0FF00C0EE9ECAB
:101A80000FF0000EE9EC0FF0000EE9EC0FF0060E7F
:101A9000E9EC0FF01200066ACFA851EF0DF053EFFA
:101AA0000DF04CEF0DF0780EE82EFED7CFB85BEFBF
:101AB0000DF05DEF0DF06FEF0DF006500708036EAF
:101AC000010E046E032A67EF0DF0D8900436032E42
:101AD00065EF0DF00450FF0A051685EF0DF0065076
:101AE0000708036E010E046E032A79EF0DF0D890FB
:101AF0000436032E77EF0DF004500512CFB883EFB4
:101B00000DF085EF0DF07EEF0DF0062A070E06644E
:101B10008CEF0DF08EEF0DF04CEF0DF00550120034
:101B2000000E0B6E000E0A6EB1EF0DF00A50062487
:101B3000086E0B500720096E08C5F6F409C5F7F4C6
:101B4000000EF86E150EF76403D00800F55005D0AE
:101B5000F6C4E9F4F7C4EAF4EF502EEC0FF00A4AA9
:101B60000B2A0A500624086E0B500720096E08C580
:101B7000F6F409C5F7F4000EF86E150EF76403D0FD
:101B80000800F55005D0F6C4E9F4F7C4EAF4EF50C4
:101B90000009D8A4CEEF0DF0D0EF0DF096EF0DF0C8
:101BA0001200076E0704D8A4D8EF0DF0DAEF0DF09D
:101BB000EBEF0DF006507F0F0A6E0A380F0B086E20
:101BC0000A500F0B096E0850E9EC0FF00950E9ECD0
:101BD0000FF003EF0EF0020E0718D8A4F2EF0DF08D
:101BE000F4EF0DF003EF0EF00650BF0F0A6E0A3847
:101BF0000F0B086E0A500F0B096E0850E9EC0FF03E
:101C00000950E9EC0FF01200BE6ABF6AC06A3F0ECD
:101C1000C66E200EC76E070EC86E370E0401006F29
:101C2000086B070E106F016B096B116B0201876B5C
:101C3000866B0401026B0A6B126B370E036FF00E9A
:101C40000B6F13693F0E046F0C6B070E146F0D0EB4
:101C50000201726F100E0F6F0401056B066B076BAC
:101C60000D6B0E6B0F6B156B166B176B1200020171
:101C7000A16BA26BA36BA46BA56BA66BA76BA86BE8
:101C8000A96BAA6BB00EAB6F800EAC6F080EAD6F78
:101C9000670EAE6FAF6B2E0EB06FB16B800EB26F72
:101CA000B36B000E036E000E046E14EC10F0000E09
:101CB000036E000E046E06EC10F0000E036E000EB4
:101CC000046EF8EC0FF0000E406E000E3F6E120036
:101CD000036E03A06EEF0EF070EF0EF073EF0EF0D8
:101CE000D08674EF0EF0D09603A279EF0EF07BEF62
:101CF0000EF07EEF0EF0D08C7FEF0EF0D09C03A4A0
:101D000084EF0EF086EF0EF089EF0EF0D08E8AEFA2
:101D10000EF0D09E03A68FEF0EF091EF0EF094EF31
:101D20000EF0CF8E95EF0EF0CF9E1200FAC401F5A3
:101D3000FBC402F5A8AE9FEF0EF0A1EF0EF0ACEFE2
:101D40000EF0B3AEA6EF0EF0A8EF0EF0ACEF0EF073
:101D500050EC10F0BCEF0EF0ABAEB1EF0EF0B3EF05
:101D60000EF0BCEF0EF0B6AEB8EF0EF0BAEF0EF01C
:101D7000BCEF0EF04CEC0FF002C5FBF401C5FAF419
:101D8000110017C51AF5D3EF0EF015C50CF516C5E1
:101D90000DF51A0E0E6E050E0F6E18C510F519C54D
:101DA00011F5D8EC0BF01AC5F6F4160EF76EF86ABA
:101DB0000800F5500009D8A4E0EF0EF0E2EF0EF0B5
:101DC000C5EF0EF0000E166E000E156E12001E0E00
:101DD000206E050E216E1BC522F51CC523F5000ED5
:101DE000256E000E246E000E2C6E000E2B6E220E41
:101DF000156E050E166E1DC517F5200E186E050E14
:101E0000196EC1EC0EF024501B24D96E25501C20F5
:101E1000DA6EDF6A120003C5D9F404C5DAF4DF6AAA
:101E2000A00EE82EFED7CFB818EF0FF01AEF0FF084
:101E30002DEF0FF0780EE82EFED7CFA822EF0FF08F
:101E400024EF0FF02DEF0FF003C5D9F404C5DAF439
:101E5000010EDF6EA00EE82EFED71200056ED08AAE
:101E600005380F0B0F0B68EC0EF0D088080E046ECF
:101E7000CA0EE82EFED7042EFCD7D09805500F0BC3
:101E800068EC0EF0D088080E046ECA0EE82EFED75D
:101E9000042EFCD7D0981200B69E38500301196F5B
:101EA00037C518F356505710D8B459EF0FF05BEF01
:101EB0000FF067EF0FF002D867EF0FF00500FA6E32
:101EC0005650FD6E5750FE6EFF6AFA501200120017
:101ED000D69AB490D680000E036E000E046E48ECC5
:101EE00010F0B990D682000E036E000E046E43EC23
:101EF00010F0BD90D684000E036E000E046E3EEC12
:101F000010F012000301196B186B6F0E1B6F195143
:101F1000056E1851376E05C538F59C0E036E200E00
:101F2000046E39EC10F0B69EAB8E9F0E03011A6F53
:101F3000120001EE60F1200EEE6AE806FDE101EE0E
:101F400033F1230EEE6AE806FDE10401080E5D6F31
:101F5000000E5E6F000E5F6F0001AFEF0CF0000E21
:101F6000E9EC0FF0010EE9EC0FF0000EE9EC0FF0D8
:101F7000020EE9EC0FF0200E066E2A0EE82EFED7B8
:101F8000062EFCD71200C798BF98020E046E190ED9
:101F9000036E820EE82EFED7032EFCD7042EFAD74E
:101FA000BF88280EE82EFED7C78812000001B46B48
:101FB000070EB56F070EB66F070EB76F070EB86F37
:101FC000070EB96F070EBE6F070EBF6FF46AF36A94
:101FD0001200056ED09A055068EC0EF0D088080EFD
:101FE000046ECA0EE82EFED7042EFCD7D09812003D
:101FF00003500410D8B4FFEF0FF001EF10F005EF1D
:1020000010F003C539F504C53AF512000350041069
:10201000D8B40DEF10F00FEF10F013EF10F003C570
:102020003BF504C53CF5120003500410D8B41BEF77
:1020300010F01DEF10F021EF10F003C53DF504C5C1
:102040003EF512002FEC10F004EC0EF0D6EC0FF081
:1020500082EC0FF037EC0EF068EC0FF01200600E1F
:102060000001AD6FAF6BB36B070EB16FB06BAC6BB4
:10207000120003C556F504C557F5120003C541F516
:1020800004C542F5120003C543F504C544F512002A
:1020900003C545F504C546F51200120012001200F2
:0220A00012002C
:020000040030CA
:09000000FFFFF7FF9FFFFFFFFF68
:00000001FF
